{
  "_format": "hh-sol-artifact-1",
  "contractName": "MyNFT",
  "sourceName": "contracts/MyNFT.sol",
  "abi": [
    {
      "inputs": [],
      "stateMutability": "nonpayable",
      "type": "constructor"
    },
    {
      "anonymous": false,
      "inputs": [
        {
          "indexed": true,
          "internalType": "address",
          "name": "owner",
          "type": "address"
        },
        {
          "indexed": true,
          "internalType": "address",
          "name": "approved",
          "type": "address"
        },
        {
          "indexed": true,
          "internalType": "uint256",
          "name": "tokenId",
          "type": "uint256"
        }
      ],
      "name": "Approval",
      "type": "event"
    },
    {
      "anonymous": false,
      "inputs": [
        {
          "indexed": true,
          "internalType": "address",
          "name": "owner",
          "type": "address"
        },
        {
          "indexed": true,
          "internalType": "address",
          "name": "operator",
          "type": "address"
        },
        {
          "indexed": false,
          "internalType": "bool",
          "name": "approved",
          "type": "bool"
        }
      ],
      "name": "ApprovalForAll",
      "type": "event"
    },
    {
      "anonymous": false,
      "inputs": [
        {
          "indexed": false,
          "internalType": "uint256",
          "name": "_fromTokenId",
          "type": "uint256"
        },
        {
          "indexed": false,
          "internalType": "uint256",
          "name": "_toTokenId",
          "type": "uint256"
        }
      ],
      "name": "BatchMetadataUpdate",
      "type": "event"
    },
    {
      "anonymous": false,
      "inputs": [
        {
          "indexed": true,
          "internalType": "address",
          "name": "delegator",
          "type": "address"
        },
        {
          "indexed": true,
          "internalType": "address",
          "name": "fromDelegate",
          "type": "address"
        },
        {
          "indexed": true,
          "internalType": "address",
          "name": "toDelegate",
          "type": "address"
        }
      ],
      "name": "DelegateChanged",
      "type": "event"
    },
    {
      "anonymous": false,
      "inputs": [
        {
          "indexed": true,
          "internalType": "address",
          "name": "delegate",
          "type": "address"
        },
        {
          "indexed": false,
          "internalType": "uint256",
          "name": "previousBalance",
          "type": "uint256"
        },
        {
          "indexed": false,
          "internalType": "uint256",
          "name": "newBalance",
          "type": "uint256"
        }
      ],
      "name": "DelegateVotesChanged",
      "type": "event"
    },
    {
      "anonymous": false,
      "inputs": [],
      "name": "EIP712DomainChanged",
      "type": "event"
    },
    {
      "anonymous": false,
      "inputs": [
        {
          "indexed": false,
          "internalType": "uint8",
          "name": "version",
          "type": "uint8"
        }
      ],
      "name": "Initialized",
      "type": "event"
    },
    {
      "anonymous": false,
      "inputs": [
        {
          "indexed": false,
          "internalType": "uint256",
          "name": "_tokenId",
          "type": "uint256"
        }
      ],
      "name": "MetadataUpdate",
      "type": "event"
    },
    {
      "anonymous": false,
      "inputs": [
        {
          "indexed": true,
          "internalType": "address",
          "name": "previousOwner",
          "type": "address"
        },
        {
          "indexed": true,
          "internalType": "address",
          "name": "newOwner",
          "type": "address"
        }
      ],
      "name": "OwnershipTransferred",
      "type": "event"
    },
    {
      "anonymous": false,
      "inputs": [
        {
          "indexed": false,
          "internalType": "address",
          "name": "account",
          "type": "address"
        }
      ],
      "name": "Paused",
      "type": "event"
    },
    {
      "anonymous": false,
      "inputs": [
        {
          "indexed": true,
          "internalType": "address",
          "name": "from",
          "type": "address"
        },
        {
          "indexed": true,
          "internalType": "address",
          "name": "to",
          "type": "address"
        },
        {
          "indexed": true,
          "internalType": "uint256",
          "name": "tokenId",
          "type": "uint256"
        }
      ],
      "name": "Transfer",
      "type": "event"
    },
    {
      "anonymous": false,
      "inputs": [
        {
          "indexed": false,
          "internalType": "address",
          "name": "account",
          "type": "address"
        }
      ],
      "name": "Unpaused",
      "type": "event"
    },
    {
      "inputs": [],
      "name": "CLOCK_MODE",
      "outputs": [
        {
          "internalType": "string",
          "name": "",
          "type": "string"
        }
      ],
      "stateMutability": "view",
      "type": "function"
    },
    {
      "inputs": [],
      "name": "DOMAIN_SEPARATOR",
      "outputs": [
        {
          "internalType": "bytes32",
          "name": "",
          "type": "bytes32"
        }
      ],
      "stateMutability": "view",
      "type": "function"
    },
    {
      "inputs": [
        {
          "internalType": "address",
          "name": "to",
          "type": "address"
        },
        {
          "internalType": "uint256",
          "name": "tokenId",
          "type": "uint256"
        }
      ],
      "name": "approve",
      "outputs": [],
      "stateMutability": "nonpayable",
      "type": "function"
    },
    {
      "inputs": [
        {
          "internalType": "address",
          "name": "owner",
          "type": "address"
        }
      ],
      "name": "balanceOf",
      "outputs": [
        {
          "internalType": "uint256",
          "name": "",
          "type": "uint256"
        }
      ],
      "stateMutability": "view",
      "type": "function"
    },
    {
      "inputs": [
        {
          "internalType": "uint256",
          "name": "tokenId",
          "type": "uint256"
        }
      ],
      "name": "burn",
      "outputs": [],
      "stateMutability": "nonpayable",
      "type": "function"
    },
    {
      "inputs": [],
      "name": "clock",
      "outputs": [
        {
          "internalType": "uint48",
          "name": "",
          "type": "uint48"
        }
      ],
      "stateMutability": "view",
      "type": "function"
    },
    {
      "inputs": [
        {
          "internalType": "address",
          "name": "delegatee",
          "type": "address"
        }
      ],
      "name": "delegate",
      "outputs": [],
      "stateMutability": "nonpayable",
      "type": "function"
    },
    {
      "inputs": [
        {
          "internalType": "address",
          "name": "delegatee",
          "type": "address"
        },
        {
          "internalType": "uint256",
          "name": "nonce",
          "type": "uint256"
        },
        {
          "internalType": "uint256",
          "name": "expiry",
          "type": "uint256"
        },
        {
          "internalType": "uint8",
          "name": "v",
          "type": "uint8"
        },
        {
          "internalType": "bytes32",
          "name": "r",
          "type": "bytes32"
        },
        {
          "internalType": "bytes32",
          "name": "s",
          "type": "bytes32"
        }
      ],
      "name": "delegateBySig",
      "outputs": [],
      "stateMutability": "nonpayable",
      "type": "function"
    },
    {
      "inputs": [
        {
          "internalType": "address",
          "name": "account",
          "type": "address"
        }
      ],
      "name": "delegates",
      "outputs": [
        {
          "internalType": "address",
          "name": "",
          "type": "address"
        }
      ],
      "stateMutability": "view",
      "type": "function"
    },
    {
      "inputs": [],
      "name": "eip712Domain",
      "outputs": [
        {
          "internalType": "bytes1",
          "name": "fields",
          "type": "bytes1"
        },
        {
          "internalType": "string",
          "name": "name",
          "type": "string"
        },
        {
          "internalType": "string",
          "name": "version",
          "type": "string"
        },
        {
          "internalType": "uint256",
          "name": "chainId",
          "type": "uint256"
        },
        {
          "internalType": "address",
          "name": "verifyingContract",
          "type": "address"
        },
        {
          "internalType": "bytes32",
          "name": "salt",
          "type": "bytes32"
        },
        {
          "internalType": "uint256[]",
          "name": "extensions",
          "type": "uint256[]"
        }
      ],
      "stateMutability": "view",
      "type": "function"
    },
    {
      "inputs": [
        {
          "internalType": "uint256",
          "name": "tokenId",
          "type": "uint256"
        }
      ],
      "name": "getApproved",
      "outputs": [
        {
          "internalType": "address",
          "name": "",
          "type": "address"
        }
      ],
      "stateMutability": "view",
      "type": "function"
    },
    {
      "inputs": [
        {
          "internalType": "uint256",
          "name": "timepoint",
          "type": "uint256"
        }
      ],
      "name": "getPastTotalSupply",
      "outputs": [
        {
          "internalType": "uint256",
          "name": "",
          "type": "uint256"
        }
      ],
      "stateMutability": "view",
      "type": "function"
    },
    {
      "inputs": [
        {
          "internalType": "address",
          "name": "account",
          "type": "address"
        },
        {
          "internalType": "uint256",
          "name": "timepoint",
          "type": "uint256"
        }
      ],
      "name": "getPastVotes",
      "outputs": [
        {
          "internalType": "uint256",
          "name": "",
          "type": "uint256"
        }
      ],
      "stateMutability": "view",
      "type": "function"
    },
    {
      "inputs": [
        {
          "internalType": "address",
          "name": "account",
          "type": "address"
        }
      ],
      "name": "getVotes",
      "outputs": [
        {
          "internalType": "uint256",
          "name": "",
          "type": "uint256"
        }
      ],
      "stateMutability": "view",
      "type": "function"
    },
    {
      "inputs": [],
      "name": "initialize",
      "outputs": [],
      "stateMutability": "nonpayable",
      "type": "function"
    },
    {
      "inputs": [
        {
          "internalType": "address",
          "name": "owner",
          "type": "address"
        },
        {
          "internalType": "address",
          "name": "operator",
          "type": "address"
        }
      ],
      "name": "isApprovedForAll",
      "outputs": [
        {
          "internalType": "bool",
          "name": "",
          "type": "bool"
        }
      ],
      "stateMutability": "view",
      "type": "function"
    },
    {
      "inputs": [],
      "name": "name",
      "outputs": [
        {
          "internalType": "string",
          "name": "",
          "type": "string"
        }
      ],
      "stateMutability": "view",
      "type": "function"
    },
    {
      "inputs": [
        {
          "internalType": "address",
          "name": "owner",
          "type": "address"
        }
      ],
      "name": "nonces",
      "outputs": [
        {
          "internalType": "uint256",
          "name": "",
          "type": "uint256"
        }
      ],
      "stateMutability": "view",
      "type": "function"
    },
    {
      "inputs": [],
      "name": "owner",
      "outputs": [
        {
          "internalType": "address",
          "name": "",
          "type": "address"
        }
      ],
      "stateMutability": "view",
      "type": "function"
    },
    {
      "inputs": [
        {
          "internalType": "uint256",
          "name": "tokenId",
          "type": "uint256"
        }
      ],
      "name": "ownerOf",
      "outputs": [
        {
          "internalType": "address",
          "name": "",
          "type": "address"
        }
      ],
      "stateMutability": "view",
      "type": "function"
    },
    {
      "inputs": [],
      "name": "pause",
      "outputs": [],
      "stateMutability": "nonpayable",
      "type": "function"
    },
    {
      "inputs": [],
      "name": "paused",
      "outputs": [
        {
          "internalType": "bool",
          "name": "",
          "type": "bool"
        }
      ],
      "stateMutability": "view",
      "type": "function"
    },
    {
      "inputs": [],
      "name": "renounceOwnership",
      "outputs": [],
      "stateMutability": "nonpayable",
      "type": "function"
    },
    {
      "inputs": [
        {
          "internalType": "address",
          "name": "to",
          "type": "address"
        },
        {
          "internalType": "string",
          "name": "uri",
          "type": "string"
        }
      ],
      "name": "safeMint",
      "outputs": [],
      "stateMutability": "nonpayable",
      "type": "function"
    },
    {
      "inputs": [
        {
          "internalType": "address",
          "name": "from",
          "type": "address"
        },
        {
          "internalType": "address",
          "name": "to",
          "type": "address"
        },
        {
          "internalType": "uint256",
          "name": "tokenId",
          "type": "uint256"
        }
      ],
      "name": "safeTransferFrom",
      "outputs": [],
      "stateMutability": "nonpayable",
      "type": "function"
    },
    {
      "inputs": [
        {
          "internalType": "address",
          "name": "from",
          "type": "address"
        },
        {
          "internalType": "address",
          "name": "to",
          "type": "address"
        },
        {
          "internalType": "uint256",
          "name": "tokenId",
          "type": "uint256"
        },
        {
          "internalType": "bytes",
          "name": "data",
          "type": "bytes"
        }
      ],
      "name": "safeTransferFrom",
      "outputs": [],
      "stateMutability": "nonpayable",
      "type": "function"
    },
    {
      "inputs": [
        {
          "internalType": "address",
          "name": "operator",
          "type": "address"
        },
        {
          "internalType": "bool",
          "name": "approved",
          "type": "bool"
        }
      ],
      "name": "setApprovalForAll",
      "outputs": [],
      "stateMutability": "nonpayable",
      "type": "function"
    },
    {
      "inputs": [
        {
          "internalType": "bytes4",
          "name": "interfaceId",
          "type": "bytes4"
        }
      ],
      "name": "supportsInterface",
      "outputs": [
        {
          "internalType": "bool",
          "name": "",
          "type": "bool"
        }
      ],
      "stateMutability": "view",
      "type": "function"
    },
    {
      "inputs": [],
      "name": "symbol",
      "outputs": [
        {
          "internalType": "string",
          "name": "",
          "type": "string"
        }
      ],
      "stateMutability": "view",
      "type": "function"
    },
    {
      "inputs": [
        {
          "internalType": "uint256",
          "name": "index",
          "type": "uint256"
        }
      ],
      "name": "tokenByIndex",
      "outputs": [
        {
          "internalType": "uint256",
          "name": "",
          "type": "uint256"
        }
      ],
      "stateMutability": "view",
      "type": "function"
    },
    {
      "inputs": [
        {
          "internalType": "address",
          "name": "owner",
          "type": "address"
        },
        {
          "internalType": "uint256",
          "name": "index",
          "type": "uint256"
        }
      ],
      "name": "tokenOfOwnerByIndex",
      "outputs": [
        {
          "internalType": "uint256",
          "name": "",
          "type": "uint256"
        }
      ],
      "stateMutability": "view",
      "type": "function"
    },
    {
      "inputs": [
        {
          "internalType": "uint256",
          "name": "tokenId",
          "type": "uint256"
        }
      ],
      "name": "tokenURI",
      "outputs": [
        {
          "internalType": "string",
          "name": "",
          "type": "string"
        }
      ],
      "stateMutability": "view",
      "type": "function"
    },
    {
      "inputs": [],
      "name": "totalSupply",
      "outputs": [
        {
          "internalType": "uint256",
          "name": "",
          "type": "uint256"
        }
      ],
      "stateMutability": "view",
      "type": "function"
    },
    {
      "inputs": [
        {
          "internalType": "address",
          "name": "from",
          "type": "address"
        },
        {
          "internalType": "address",
          "name": "to",
          "type": "address"
        },
        {
          "internalType": "uint256",
          "name": "tokenId",
          "type": "uint256"
        }
      ],
      "name": "transferFrom",
      "outputs": [],
      "stateMutability": "nonpayable",
      "type": "function"
    },
    {
      "inputs": [
        {
          "internalType": "address",
          "name": "newOwner",
          "type": "address"
        }
      ],
      "name": "transferOwnership",
      "outputs": [],
      "stateMutability": "nonpayable",
      "type": "function"
    },
    {
      "inputs": [],
      "name": "unpause",
      "outputs": [],
      "stateMutability": "nonpayable",
      "type": "function"
    }
  ],
  "bytecode": "0x608060405234801561001057600080fd5b50613787806100206000396000f3fe608060405234801561001057600080fd5b506004361061021c5760003560e01c806370a082311161012557806395d89b41116100ad578063c3cda5201161007c578063c3cda52014610476578063c87b56dd14610489578063d204c45e1461049c578063e985e9c5146104af578063f2fde38b146104eb57600080fd5b806395d89b41146104355780639ab24eb01461043d578063a22cb46514610450578063b88d4fde1461046357600080fd5b80638456cb59116100f45780638456cb59146103ce57806384b0196e146103d65780638da5cb5b146103f15780638e539e8c1461040357806391ddadf41461041657600080fd5b806370a0823114610398578063715018a6146103ab5780637ecebe00146103b35780638129fc1c146103c657600080fd5b80633f4ba83a116101a85780634f6ccce7116101775780634f6ccce714610327578063587cde1e1461033a5780635c19a95c146103675780635c975abb1461037a5780636352211e1461038557600080fd5b80633f4ba83a146102f157806342842e0e146102f957806342966c681461030c5780634bf5d7e91461031f57600080fd5b806318160ddd116101ef57806318160ddd1461029e57806323b872dd146102b05780632f745c59146102c35780633644e515146102d65780633a46b1a8146102de57600080fd5b806301ffc9a71461022157806306fdde0314610249578063081812fc1461025e578063095ea7b314610289575b600080fd5b61023461022f36600461304e565b6104fe565b60405190151581526020015b60405180910390f35b61025161050f565b60405161024091906130c3565b61027161026c3660046130d6565b6105a1565b6040516001600160a01b039091168152602001610240565b61029c61029736600461310b565b6105c8565b005b6099545b604051908152602001610240565b61029c6102be366004613135565b6106e3565b6102a26102d136600461310b565b610715565b6102a26107ab565b6102a26102ec36600461310b565b6107ba565b61029c61084c565b61029c610307366004613135565b61085e565b61029c61031a3660046130d6565b610879565b6102516108aa565b6102a26103353660046130d6565b610942565b610271610348366004613171565b6001600160a01b0390811660009081526101c560205260409020541690565b61029c610375366004613171565b6109d5565b60fb5460ff16610234565b6102716103933660046130d6565b6109e4565b6102a26103a6366004613171565b610a44565b61029c610aca565b6102a26103c1366004613171565b610adc565b61029c610afb565b61029c610cb6565b6103de610cc6565b604051610240979695949392919061318c565b61012d546001600160a01b0316610271565b6102a26104113660046130d6565b610d66565b61041e610de1565b60405165ffffffffffff9091168152602001610240565b610251610dec565b6102a261044b366004613171565b610dfb565b61029c61045e366004613222565b610e1d565b61029c6104713660046132ea565b610e28565b61029c610484366004613366565b610e60565b6102516104973660046130d6565b610f8d565b61029c6104aa3660046133c6565b610f98565b6102346104bd366004613428565b6001600160a01b039182166000908152606a6020908152604080832093909416825291909152205460ff1690565b61029c6104f9366004613171565b610fc9565b60006105098261103f565b92915050565b60606065805461051e9061345b565b80601f016020809104026020016040519081016040528092919081815260200182805461054a9061345b565b80156105975780601f1061056c57610100808354040283529160200191610597565b820191906000526020600020905b81548152906001019060200180831161057a57829003601f168201915b5050505050905090565b60006105ac82611064565b506000908152606960205260409020546001600160a01b031690565b60006105d3826109e4565b9050806001600160a01b0316836001600160a01b031614156106465760405162461bcd60e51b815260206004820152602160248201527f4552433732313a20617070726f76616c20746f2063757272656e74206f776e656044820152603960f91b60648201526084015b60405180910390fd5b336001600160a01b0382161480610662575061066281336104bd565b6106d45760405162461bcd60e51b815260206004820152603d60248201527f4552433732313a20617070726f76652063616c6c6572206973206e6f7420746f60448201527f6b656e206f776e6572206f7220617070726f76656420666f7220616c6c000000606482015260840161063d565b6106de83836110c3565b505050565b6106ee335b82611131565b61070a5760405162461bcd60e51b815260040161063d90613490565b6106de8383836111b0565b600061072083610a44565b82106107825760405162461bcd60e51b815260206004820152602b60248201527f455243373231456e756d657261626c653a206f776e657220696e646578206f7560448201526a74206f6620626f756e647360a81b606482015260840161063d565b506001600160a01b03919091166000908152609760209081526040808320938352929052205490565b60006107b5611329565b905090565b60006107c4610de1565b65ffffffffffff1682106108115760405162461bcd60e51b81526020600482015260146024820152730566f7465733a20667574757265206c6f6f6b75760641b604482015260640161063d565b61083c61081d83611333565b6001600160a01b03851660009081526101c6602052604090209061139c565b6001600160e01b03169392505050565b610854611451565b61085c6114ac565b565b6106de83838360405180602001604052806000815250610e28565b610882336106e8565b61089e5760405162461bcd60e51b815260040161063d90613490565b6108a7816114fe565b50565b6060436108b5610de1565b65ffffffffffff161461090a5760405162461bcd60e51b815260206004820152601860248201527f566f7465733a2062726f6b656e20636c6f636b206d6f64650000000000000000604482015260640161063d565b5060408051808201909152601d81527f6d6f64653d626c6f636b6e756d6265722666726f6d3d64656661756c74000000602082015290565b600061094d60995490565b82106109b05760405162461bcd60e51b815260206004820152602c60248201527f455243373231456e756d657261626c653a20676c6f62616c20696e646578206f60448201526b7574206f6620626f756e647360a01b606482015260840161063d565b609982815481106109c3576109c36134dd565b90600052602060002001549050919050565b336109e08183611507565b5050565b6000818152606760205260408120546001600160a01b0316806105095760405162461bcd60e51b8152602060048201526018602482015277115490cdcc8c4e881a5b9d985b1a59081d1bdad95b88125160421b604482015260640161063d565b60006001600160a01b038216610aae5760405162461bcd60e51b815260206004820152602960248201527f4552433732313a2061646472657373207a65726f206973206e6f7420612076616044820152683634b21037bbb732b960b91b606482015260840161063d565b506001600160a01b031660009081526068602052604090205490565b610ad2611451565b61085c600061157a565b6001600160a01b03811660009081526101c86020526040812054610509565b600054610100900460ff1615808015610b1b5750600054600160ff909116105b80610b355750303b158015610b35575060005460ff166001145b610b985760405162461bcd60e51b815260206004820152602e60248201527f496e697469616c697a61626c653a20636f6e747261637420697320616c72656160448201526d191e481a5b9a5d1a585b1a5e995960921b606482015260840161063d565b6000805460ff191660011790558015610bbb576000805461ff0019166101001790555b610bfe60405180604001604052806005815260200164135e53919560da1b815250604051806040016040528060048152602001631353919560e21b8152506115cd565b610c066115fe565b610c0e6115fe565b610c16611625565b610c1e611654565b610c266115fe565b610c6660405180604001604052806005815260200164135e53919560da1b815250604051806040016040528060018152602001603160f81b815250611683565b610c6e6115fe565b80156108a7576000805461ff0019169055604051600181527f7f26b83ff96e1f2b6a682f133852f6798a09c465da95921460cefb38474024989060200160405180910390a150565b610cbe611451565b61085c6116b4565b600060608060008060006060610191546000801b148015610ce8575061019254155b610d2c5760405162461bcd60e51b81526020600482015260156024820152741152540dcc4c8e88155b9a5b9a5d1a585b1a5e9959605a1b604482015260640161063d565b610d346116f1565b610d3c611701565b60408051600080825260208201909252600f60f81b9b939a50919850469750309650945092509050565b6000610d70610de1565b65ffffffffffff168210610dbd5760405162461bcd60e51b81526020600482015260146024820152730566f7465733a20667574757265206c6f6f6b75760641b604482015260640161063d565b610dd2610dc983611333565b6101c79061139c565b6001600160e01b031692915050565b60006107b543611711565b60606066805461051e9061345b565b6001600160a01b03811660009081526101c660205260408120610dd290611778565b6109e03383836117b3565b610e323383611131565b610e4e5760405162461bcd60e51b815260040161063d90613490565b610e5a84848484611882565b50505050565b83421115610eb05760405162461bcd60e51b815260206004820152601860248201527f566f7465733a207369676e617475726520657870697265640000000000000000604482015260640161063d565b604080517fe48329057bfd03d55e49b547132e39cffd9c1820ad7b9d4c5307691425d15adf60208201526001600160a01b038816918101919091526060810186905260808101859052600090610f2a90610f229060a001604051602081830303815290604052805190602001206118b5565b8585856118e2565b9050610f358161190a565b8614610f7a5760405162461bcd60e51b8152602060048201526014602482015273566f7465733a20696e76616c6964206e6f6e636560601b604482015260640161063d565b610f848188611507565b50505050505050565b606061050982611933565b6000610fa46102295490565b9050610fb561022980546001019055565b610fbf8382611a3c565b6106de8183611a56565b610fd1611451565b6001600160a01b0381166110365760405162461bcd60e51b815260206004820152602660248201527f4f776e61626c653a206e6577206f776e657220697320746865207a65726f206160448201526564647265737360d01b606482015260840161063d565b6108a78161157a565b60006001600160e01b03198216632483248360e11b1480610509575061050982611b28565b6000818152606760205260409020546001600160a01b03166108a75760405162461bcd60e51b8152602060048201526018602482015277115490cdcc8c4e881a5b9d985b1a59081d1bdad95b88125160421b604482015260640161063d565b600081815260696020526040902080546001600160a01b0319166001600160a01b03841690811790915581906110f8826109e4565b6001600160a01b03167f8c5be1e5ebec7d5bd14f71427d1e84f3dd0314c0f7b2291e5b200ac8c7c3b92560405160405180910390a45050565b60008061113d836109e4565b9050806001600160a01b0316846001600160a01b0316148061118457506001600160a01b038082166000908152606a602090815260408083209388168352929052205460ff165b806111a85750836001600160a01b031661119d846105a1565b6001600160a01b0316145b949350505050565b826001600160a01b03166111c3826109e4565b6001600160a01b0316146111e95760405162461bcd60e51b815260040161063d906134f3565b6001600160a01b03821661124b5760405162461bcd60e51b8152602060048201526024808201527f4552433732313a207472616e7366657220746f20746865207a65726f206164646044820152637265737360e01b606482015260840161063d565b6112588383836001611b4d565b826001600160a01b031661126b826109e4565b6001600160a01b0316146112915760405162461bcd60e51b815260040161063d906134f3565b600081815260696020908152604080832080546001600160a01b03199081169091556001600160a01b0387811680865260688552838620805460001901905590871680865283862080546001019055868652606790945282852080549092168417909155905184937fddf252ad1be2c89b69c2b068fc378daa952ba7f163c4a11628f55a4df523b3ef91a46106de8383836001611b61565b60006107b5611b6d565b600063ffffffff8211156113985760405162461bcd60e51b815260206004820152602660248201527f53616665436173743a2076616c756520646f65736e27742066697420696e203360448201526532206269747360d01b606482015260840161063d565b5090565b8154600090818160058111156113f95760006113b784611be1565b6113c1908561354e565b60008881526020902090915081015463ffffffff90811690871610156113e9578091506113f7565b6113f4816001613565565b92505b505b600061140787878585611cc6565b905080156114435761142c8761141e60018461354e565b600091825260209091200190565b5464010000000090046001600160e01b0316611446565b60005b979650505050505050565b61012d546001600160a01b0316331461085c5760405162461bcd60e51b815260206004820181905260248201527f4f776e61626c653a2063616c6c6572206973206e6f7420746865206f776e6572604482015260640161063d565b6114b4611d24565b60fb805460ff191690557f5db9ee0a495bf2e6ff9c91a7834c1ba4fdd244a5e8aa4e537bd38aeae4b073aa335b6040516001600160a01b03909116815260200160405180910390a1565b6108a781611d6d565b6001600160a01b0382811660008181526101c5602052604080822080548686166001600160a01b0319821681179092559151919094169392849290917f3134e8a2e6d97e929a7e54011ea5485d7d196dd5f0ba4d4ef95803e8e3fc257f9190a46106de818361157586611dad565b611db8565b61012d80546001600160a01b038381166001600160a01b0319831681179093556040519116919082907f8be0079c531659141344cd1fd0a4f28419497f9722a3daafe3b4186f6b6457e090600090a35050565b600054610100900460ff166115f45760405162461bcd60e51b815260040161063d9061357d565b6109e08282611f26565b600054610100900460ff1661085c5760405162461bcd60e51b815260040161063d9061357d565b600054610100900460ff1661164c5760405162461bcd60e51b815260040161063d9061357d565b61085c611f74565b600054610100900460ff1661167b5760405162461bcd60e51b815260040161063d9061357d565b61085c611fa7565b600054610100900460ff166116aa5760405162461bcd60e51b815260040161063d9061357d565b6109e08282611fd7565b6116bc612038565b60fb805460ff191660011790557f62e78cea01bee320cd4e420270b5ea74000d11b0c9f74754ebdbfc544b05a2586114e13390565b6060610193805461051e9061345b565b6060610194805461051e9061345b565b600065ffffffffffff8211156113985760405162461bcd60e51b815260206004820152602660248201527f53616665436173743a2076616c756520646f65736e27742066697420696e203460448201526538206269747360d01b606482015260840161063d565b805460009080156117a9576117928361141e60018461354e565b5464010000000090046001600160e01b03166117ac565b60005b9392505050565b816001600160a01b0316836001600160a01b031614156118155760405162461bcd60e51b815260206004820152601960248201527f4552433732313a20617070726f766520746f2063616c6c657200000000000000604482015260640161063d565b6001600160a01b038381166000818152606a6020908152604080832094871680845294825291829020805460ff191686151590811790915591519182527f17307eab39ab6107e8899845ad3d59bd9653f200f220920489ca2b5937696c31910160405180910390a3505050565b61188d8484846111b0565b6118998484848461207e565b610e5a5760405162461bcd60e51b815260040161063d906135c8565b60006105096118c2611329565b8360405161190160f01b8152600281019290925260228201526042902090565b60008060006118f387878787612188565b915091506119008161224c565b5095945050505050565b6001600160a01b03811660009081526101c8602052604090208054600181018255905b50919050565b606061193e82611064565b600082815260c96020526040812080546119579061345b565b80601f01602080910402602001604051908101604052809291908181526020018280546119839061345b565b80156119d05780601f106119a5576101008083540402835291602001916119d0565b820191906000526020600020905b8154815290600101906020018083116119b357829003601f168201915b5050505050905060006119ee60408051602081019091526000815290565b9050805160001415611a01575092915050565b815115611a33578082604051602001611a1b92919061361a565b60405160208183030381529060405292505050919050565b6111a88461239a565b6109e082826040518060200160405280600081525061240d565b6000828152606760205260409020546001600160a01b0316611ad15760405162461bcd60e51b815260206004820152602e60248201527f45524337323155524953746f726167653a2055524920736574206f66206e6f6e60448201526d32bc34b9ba32b73a103a37b5b2b760911b606482015260840161063d565b600082815260c9602090815260409091208251611af092840190612f6d565b506040518281527ff8e1a15aba9398e019f0b49df1a4fde98ee17ae345cb5f6b5e2c27f5033e8ce79060200160405180910390a15050565b60006001600160e01b0319821663780e9d6360e01b1480610509575061050982612440565b611b55612038565b610e5a84848484612490565b610e5a848484846125c4565b60007f8b73c3c69bb8fe3d512ecc4cf759cc79239f7b179b0ffacaa9a75d522b39400f611b986125d4565b611ba061262e565b60408051602081019490945283019190915260608201524660808201523060a082015260c00160405160208183030381529060405280519060200120905090565b600081611bf057506000919050565b60006001611bfd84612660565b901c6001901b90506001818481611c1657611c16613649565b048201901c90506001818481611c2e57611c2e613649565b048201901c90506001818481611c4657611c46613649565b048201901c90506001818481611c5e57611c5e613649565b048201901c90506001818481611c7657611c76613649565b048201901c90506001818481611c8e57611c8e613649565b048201901c90506001818481611ca657611ca6613649565b048201901c90506117ac81828581611cc057611cc0613649565b046126f4565b60005b81831015611d1c576000611cdd848461270a565b60008781526020902090915063ffffffff86169082015463ffffffff161115611d0857809250611d16565b611d13816001613565565b93505b50611cc9565b509392505050565b60fb5460ff1661085c5760405162461bcd60e51b815260206004820152601460248201527314185d5cd8589b194e881b9bdd081c185d5cd95960621b604482015260640161063d565b611d7681612725565b600081815260c9602052604090208054611d8f9061345b565b1590506108a757600081815260c9602052604081206108a791612fed565b600061050982610a44565b816001600160a01b0316836001600160a01b031614158015611dda5750600081115b156106de576001600160a01b03831615611e83576001600160a01b03831660009081526101c6602052604081208190611e1e906127d2611e19866127de565b612847565b6001600160e01b031691506001600160e01b03169150846001600160a01b03167fdec2bacdd2f05b59de34da9b523dff8be42e5e38e818c82fdb0bae774387a7248383604051611e78929190918252602082015260400190565b60405180910390a250505b6001600160a01b038216156106de576001600160a01b03821660009081526101c6602052604081208190611ebd90612890611e19866127de565b6001600160e01b031691506001600160e01b03169150836001600160a01b03167fdec2bacdd2f05b59de34da9b523dff8be42e5e38e818c82fdb0bae774387a7248383604051611f17929190918252602082015260400190565b60405180910390a25050505050565b600054610100900460ff16611f4d5760405162461bcd60e51b815260040161063d9061357d565b8151611f60906065906020850190612f6d565b5080516106de906066906020840190612f6d565b600054610100900460ff16611f9b5760405162461bcd60e51b815260040161063d9061357d565b60fb805460ff19169055565b600054610100900460ff16611fce5760405162461bcd60e51b815260040161063d9061357d565b61085c3361157a565b600054610100900460ff16611ffe5760405162461bcd60e51b815260040161063d9061357d565b815161201290610193906020850190612f6d565b50805161202790610194906020840190612f6d565b505060006101918190556101925550565b60fb5460ff161561085c5760405162461bcd60e51b815260206004820152601060248201526f14185d5cd8589b194e881c185d5cd95960821b604482015260640161063d565b60006001600160a01b0384163b1561218057604051630a85bd0160e11b81526001600160a01b0385169063150b7a02906120c290339089908890889060040161365f565b602060405180830381600087803b1580156120dc57600080fd5b505af192505050801561210c575060408051601f3d908101601f191682019092526121099181019061369c565b60015b612166573d80801561213a576040519150601f19603f3d011682016040523d82523d6000602084013e61213f565b606091505b50805161215e5760405162461bcd60e51b815260040161063d906135c8565b805181602001fd5b6001600160e01b031916630a85bd0160e11b1490506111a8565b5060016111a8565b6000807f7fffffffffffffffffffffffffffffff5d576e7357a4501ddfe92f46681b20a08311156121bf5750600090506003612243565b6040805160008082526020820180845289905260ff881692820192909252606081018690526080810185905260019060a0016020604051602081039080840390855afa158015612213573d6000803e3d6000fd5b5050604051601f1901519150506001600160a01b03811661223c57600060019250925050612243565b9150600090505b94509492505050565b6000816004811115612260576122606136b9565b14156122695750565b600181600481111561227d5761227d6136b9565b14156122cb5760405162461bcd60e51b815260206004820152601860248201527f45434453413a20696e76616c6964207369676e61747572650000000000000000604482015260640161063d565b60028160048111156122df576122df6136b9565b141561232d5760405162461bcd60e51b815260206004820152601f60248201527f45434453413a20696e76616c6964207369676e6174757265206c656e67746800604482015260640161063d565b6003816004811115612341576123416136b9565b14156108a75760405162461bcd60e51b815260206004820152602260248201527f45434453413a20696e76616c6964207369676e6174757265202773272076616c604482015261756560f01b606482015260840161063d565b60606123a582611064565b60006123bc60408051602081019091526000815290565b905060008151116123dc57604051806020016040528060008152506117ac565b806123e68461289c565b6040516020016123f792919061361a565b6040516020818303038152906040529392505050565b6124178383612931565b612424600084848461207e565b6106de5760405162461bcd60e51b815260040161063d906135c8565b60006001600160e01b031982166380ac58cd60e01b148061247157506001600160e01b03198216635b5e139f60e01b145b8061050957506301ffc9a760e01b6001600160e01b0319831614610509565b60018111156124ff5760405162461bcd60e51b815260206004820152603560248201527f455243373231456e756d657261626c653a20636f6e7365637574697665207472604482015274185b9cd9995c9cc81b9bdd081cdd5c1c1bdc9d1959605a1b606482015260840161063d565b816001600160a01b03851661255b5761255681609980546000838152609a60205260408120829055600182018355919091527f72a152ddfb8e864297c917af52ea6c1c68aead0fee1a62673fcc7e0c94979d000155565b61257e565b836001600160a01b0316856001600160a01b03161461257e5761257e8582612ad4565b6001600160a01b03841661259a5761259581612b71565b6125bd565b846001600160a01b0316846001600160a01b0316146125bd576125bd8482612c20565b5050505050565b6125cf848483612c64565b610e5a565b6000806125df6116f1565b8051909150156125f6578051602090910120919050565b6101915480156126065792915050565b7fc5d2460186f7233c927e7db2dcc703c0e500b653ca82273b7bfad8045d85a4709250505090565b600080612639611701565b805190915015612650578051602090910120919050565b6101925480156126065792915050565b600080608083901c1561267557608092831c92015b604083901c1561268757604092831c92015b602083901c1561269957602092831c92015b601083901c156126ab57601092831c92015b600883901c156126bd57600892831c92015b600483901c156126cf57600492831c92015b600283901c156126e157600292831c92015b600183901c156105095760010192915050565b600081831061270357816117ac565b5090919050565b600061271960028484186136cf565b6117ac90848416613565565b6000612730826109e4565b9050612740816000846001611b4d565b612749826109e4565b600083815260696020908152604080832080546001600160a01b03199081169091556001600160a01b0385168085526068845282852080546000190190558785526067909352818420805490911690555192935084927fddf252ad1be2c89b69c2b068fc378daa952ba7f163c4a11628f55a4df523b3ef908390a46109e0816000846001611b61565b60006117ac82846136f1565b60006001600160e01b038211156113985760405162461bcd60e51b815260206004820152602760248201527f53616665436173743a2076616c756520646f65736e27742066697420696e20326044820152663234206269747360c81b606482015260840161063d565b600080612883612865612858610de1565b65ffffffffffff16611333565b61287b61287188611778565b868863ffffffff16565b879190612cdd565b915091505b935093915050565b60006117ac8284613719565b606060006128a983612ceb565b600101905060008167ffffffffffffffff8111156128c9576128c961325e565b6040519080825280601f01601f1916602001820160405280156128f3576020820181803683370190505b5090508181016020015b600019016f181899199a1a9b1b9c1cb0b131b232b360811b600a86061a8153600a850494508461292c57611d1c565b6128fd565b6001600160a01b0382166129875760405162461bcd60e51b815260206004820181905260248201527f4552433732313a206d696e7420746f20746865207a65726f2061646472657373604482015260640161063d565b6000818152606760205260409020546001600160a01b0316156129ec5760405162461bcd60e51b815260206004820152601c60248201527f4552433732313a20746f6b656e20616c7265616479206d696e74656400000000604482015260640161063d565b6129fa600083836001611b4d565b6000818152606760205260409020546001600160a01b031615612a5f5760405162461bcd60e51b815260206004820152601c60248201527f4552433732313a20746f6b656e20616c7265616479206d696e74656400000000604482015260640161063d565b6001600160a01b038216600081815260686020908152604080832080546001019055848352606790915280822080546001600160a01b0319168417905551839291907fddf252ad1be2c89b69c2b068fc378daa952ba7f163c4a11628f55a4df523b3ef908290a46109e0600083836001611b61565b60006001612ae184610a44565b612aeb919061354e565b600083815260986020526040902054909150808214612b3e576001600160a01b03841660009081526097602090815260408083208584528252808320548484528184208190558352609890915290208190555b5060009182526098602090815260408084208490556001600160a01b039094168352609781528383209183525290812055565b609954600090612b839060019061354e565b6000838152609a602052604081205460998054939450909284908110612bab57612bab6134dd565b906000526020600020015490508060998381548110612bcc57612bcc6134dd565b6000918252602080832090910192909255828152609a90915260408082208490558582528120556099805480612c0457612c0461373b565b6001900381819060005260206000200160009055905550505050565b6000612c2b83610a44565b6001600160a01b039093166000908152609760209081526040808320868452825280832085905593825260989052919091209190915550565b6001600160a01b038316612c8757612c846101c7612890611e19846127de565b50505b6001600160a01b038216612caa57612ca76101c76127d2611e19846127de565b50505b6001600160a01b0383811660009081526101c560205260408082205485841683529120546106de92918216911683611db8565b600080612883858585612dc3565b60008072184f03e93ff9f4daa797ed6e38ed64bf6a1f0160401b8310612d2a5772184f03e93ff9f4daa797ed6e38ed64bf6a1f0160401b830492506040015b6d04ee2d6d415b85acef81000000008310612d56576d04ee2d6d415b85acef8100000000830492506020015b662386f26fc100008310612d7457662386f26fc10000830492506010015b6305f5e1008310612d8c576305f5e100830492506008015b6127108310612da057612710830492506004015b60648310612db2576064830492506002015b600a83106105095760010192915050565b825460009081908015612f13576000612de18761141e60018561354e565b60408051808201909152905463ffffffff8082168084526401000000009092046001600160e01b031660208401529192509087161015612e635760405162461bcd60e51b815260206004820152601b60248201527f436865636b706f696e743a2064656372656173696e67206b6579730000000000604482015260640161063d565b8563ffffffff16816000015163ffffffff161415612eb35784612e8b8861141e60018661354e565b80546001600160e01b03929092166401000000000263ffffffff909216919091179055612f03565b6040805180820190915263ffffffff80881682526001600160e01b0380881660208085019182528b54600181018d5560008d81529190912094519151909216640100000000029216919091179101555b6020015192508391506128889050565b50506040805180820190915263ffffffff80851682526001600160e01b0380851660208085019182528854600181018a5560008a815291822095519251909316640100000000029190931617920191909155905081612888565b828054612f799061345b565b90600052602060002090601f016020900481019282612f9b5760008555612fe1565b82601f10612fb457805160ff1916838001178555612fe1565b82800160010185558215612fe1579182015b82811115612fe1578251825591602001919060010190612fc6565b50611398929150613023565b508054612ff99061345b565b6000825580601f10613009575050565b601f0160209004906000526020600020908101906108a791905b5b808211156113985760008155600101613024565b6001600160e01b0319811681146108a757600080fd5b60006020828403121561306057600080fd5b81356117ac81613038565b60005b8381101561308657818101518382015260200161306e565b83811115610e5a5750506000910152565b600081518084526130af81602086016020860161306b565b601f01601f19169290920160200192915050565b6020815260006117ac6020830184613097565b6000602082840312156130e857600080fd5b5035919050565b80356001600160a01b038116811461310657600080fd5b919050565b6000806040838503121561311e57600080fd5b613127836130ef565b946020939093013593505050565b60008060006060848603121561314a57600080fd5b613153846130ef565b9250613161602085016130ef565b9150604084013590509250925092565b60006020828403121561318357600080fd5b6117ac826130ef565b60ff60f81b881681526000602060e0818401526131ac60e084018a613097565b83810360408501526131be818a613097565b606085018990526001600160a01b038816608086015260a0850187905284810360c0860152855180825283870192509083019060005b81811015613210578351835292840192918401916001016131f4565b50909c9b505050505050505050505050565b6000806040838503121561323557600080fd5b61323e836130ef565b91506020830135801515811461325357600080fd5b809150509250929050565b634e487b7160e01b600052604160045260246000fd5b600067ffffffffffffffff8084111561328f5761328f61325e565b604051601f8501601f19908116603f011681019082821181831017156132b7576132b761325e565b816040528093508581528686860111156132d057600080fd5b858560208301376000602087830101525050509392505050565b6000806000806080858703121561330057600080fd5b613309856130ef565b9350613317602086016130ef565b925060408501359150606085013567ffffffffffffffff81111561333a57600080fd5b8501601f8101871361334b57600080fd5b61335a87823560208401613274565b91505092959194509250565b60008060008060008060c0878903121561337f57600080fd5b613388876130ef565b95506020870135945060408701359350606087013560ff811681146133ac57600080fd5b9598949750929560808101359460a0909101359350915050565b600080604083850312156133d957600080fd5b6133e2836130ef565b9150602083013567ffffffffffffffff8111156133fe57600080fd5b8301601f8101851361340f57600080fd5b61341e85823560208401613274565b9150509250929050565b6000806040838503121561343b57600080fd5b613444836130ef565b9150613452602084016130ef565b90509250929050565b600181811c9082168061346f57607f821691505b6020821081141561192d57634e487b7160e01b600052602260045260246000fd5b6020808252602d908201527f4552433732313a2063616c6c6572206973206e6f7420746f6b656e206f776e6560408201526c1c881bdc88185c1c1c9bdd9959609a1b606082015260800190565b634e487b7160e01b600052603260045260246000fd5b60208082526025908201527f4552433732313a207472616e736665722066726f6d20696e636f72726563742060408201526437bbb732b960d91b606082015260800190565b634e487b7160e01b600052601160045260246000fd5b60008282101561356057613560613538565b500390565b6000821982111561357857613578613538565b500190565b6020808252602b908201527f496e697469616c697a61626c653a20636f6e7472616374206973206e6f74206960408201526a6e697469616c697a696e6760a81b606082015260800190565b60208082526032908201527f4552433732313a207472616e7366657220746f206e6f6e20455243373231526560408201527131b2b4bb32b91034b6b83632b6b2b73a32b960711b606082015260800190565b6000835161362c81846020880161306b565b83519083019061364081836020880161306b565b01949350505050565b634e487b7160e01b600052601260045260246000fd5b6001600160a01b038581168252841660208201526040810183905260806060820181905260009061369290830184613097565b9695505050505050565b6000602082840312156136ae57600080fd5b81516117ac81613038565b634e487b7160e01b600052602160045260246000fd5b6000826136ec57634e487b7160e01b600052601260045260246000fd5b500490565b60006001600160e01b038381169083168181101561371157613711613538565b039392505050565b60006001600160e01b0382811684821680830382111561364057613640613538565b634e487b7160e01b600052603160045260246000fdfea264697066735822122088976d1047745a713e2280599c4d1e50ce7fd46d50809eb668df2530c47f8ded64736f6c63430008090033",
  "linkReferences": {},
  "deployedLinkReferences": {}
}